{
  "contractName": "register",
  "abi": [
    {
      "inputs": [
        {
          "internalType": "address",
          "name": "user",
          "type": "address"
        },
        {
          "internalType": "uint256",
          "name": "password",
          "type": "uint256"
        }
      ],
      "name": "registerUser",
      "outputs": [],
      "stateMutability": "nonpayable",
      "type": "function"
    },
    {
      "inputs": [
        {
          "internalType": "address",
          "name": "user",
          "type": "address"
        },
        {
          "internalType": "uint256",
          "name": "password",
          "type": "uint256"
        }
      ],
      "name": "loginUser",
      "outputs": [
        {
          "internalType": "bool",
          "name": "",
          "type": "bool"
        }
      ],
      "stateMutability": "view",
      "type": "function",
      "constant": true
    },
    {
      "inputs": [],
      "name": "viewUsers",
      "outputs": [
        {
          "internalType": "address[]",
          "name": "",
          "type": "address[]"
        },
        {
          "internalType": "uint256[]",
          "name": "",
          "type": "uint256[]"
        }
      ],
      "stateMutability": "view",
      "type": "function",
      "constant": true
    }
  ],
  "bytecode": "0x608060405234801561001057600080fd5b506107a3806100206000396000f3fe608060405234801561001057600080fd5b50600436106100415760003560e01c806314ebdb7914610046578063eb72346b14610065578063fa0b5e5514610095575b600080fd5b61004e6100b1565b60405161005c9291906105bd565b60405180910390f35b61007f600480360381019061007a9190610651565b61019a565b60405161008c91906106ac565b60405180910390f35b6100af60048036038101906100aa9190610651565b6102c6565b005b606080600060018180548060200260200160405190810160405280929190818152602001828054801561013957602002820191906000526020600020905b8160009054906101000a900473ffffffffffffffffffffffffffffffffffffffff1673ffffffffffffffffffffffffffffffffffffffff16815260200190600101908083116100ef575b505050505091508080548060200260200160405190810160405280929190818152602001828054801561018b57602002820191906000526020600020905b815481526020019060010190808311610177575b50505050509050915091509091565b6000600260008473ffffffffffffffffffffffffffffffffffffffff1673ffffffffffffffffffffffffffffffffffffffff16815260200190815260200160002060009054906101000a900460ff166101f257600080fd5b60005b6000805490508110156102ba578373ffffffffffffffffffffffffffffffffffffffff166000828154811061022d5761022c6106c7565b5b9060005260206000200160009054906101000a900473ffffffffffffffffffffffffffffffffffffffff1673ffffffffffffffffffffffffffffffffffffffff161480156102985750826001828154811061028b5761028a6106c7565b5b9060005260206000200154145b156102a75760019150506102c0565b80806102b290610725565b9150506101f5565b60009150505b92915050565b600260008373ffffffffffffffffffffffffffffffffffffffff1673ffffffffffffffffffffffffffffffffffffffff16815260200190815260200160002060009054906101000a900460ff161561031d57600080fd5b6001600260008473ffffffffffffffffffffffffffffffffffffffff1673ffffffffffffffffffffffffffffffffffffffff16815260200190815260200160002060006101000a81548160ff0219169083151502179055506000829080600181540180825580915050600190039060005260206000200160009091909190916101000a81548173ffffffffffffffffffffffffffffffffffffffff021916908373ffffffffffffffffffffffffffffffffffffffff16021790555060018190806001815401808255809150506001900390600052602060002001600090919091909150555050565b600081519050919050565b600082825260208201905092915050565b6000819050602082019050919050565b600073ffffffffffffffffffffffffffffffffffffffff82169050919050565b600061045c82610431565b9050919050565b61046c81610451565b82525050565b600061047e8383610463565b60208301905092915050565b6000602082019050919050565b60006104a282610405565b6104ac8185610410565b93506104b783610421565b8060005b838110156104e85781516104cf8882610472565b97506104da8361048a565b9250506001810190506104bb565b5085935050505092915050565b600081519050919050565b600082825260208201905092915050565b6000819050602082019050919050565b6000819050919050565b61053481610521565b82525050565b6000610546838361052b565b60208301905092915050565b6000602082019050919050565b600061056a826104f5565b6105748185610500565b935061057f83610511565b8060005b838110156105b0578151610597888261053a565b97506105a283610552565b925050600181019050610583565b5085935050505092915050565b600060408201905081810360008301526105d78185610497565b905081810360208301526105eb818461055f565b90509392505050565b600080fd5b61060281610451565b811461060d57600080fd5b50565b60008135905061061f816105f9565b92915050565b61062e81610521565b811461063957600080fd5b50565b60008135905061064b81610625565b92915050565b60008060408385031215610668576106676105f4565b5b600061067685828601610610565b92505060206106878582860161063c565b9150509250929050565b60008115159050919050565b6106a681610691565b82525050565b60006020820190506106c1600083018461069d565b92915050565b7f4e487b7100000000000000000000000000000000000000000000000000000000600052603260045260246000fd5b7f4e487b7100000000000000000000000000000000000000000000000000000000600052601160045260246000fd5b600061073082610521565b91507fffffffffffffffffffffffffffffffffffffffffffffffffffffffffffffffff8203610762576107616106f6565b5b60018201905091905056fea2646970667358221220b8a7bfb30b74663a89795d53c2b7650365b0b4f83dd2c537c5858b145e5e786e64736f6c63430008110033",
  "immutableReferences": {},
  "source": "// SPDX-License-Identifier: MIT\npragma solidity >=0.4.22 <0.9.0;\n\ncontract register {\n  \n  address[] _users;\n  uint[] _passwords;\n\n  mapping(address=>bool) _registered;\n\n  function registerUser(address user, uint password) public {\n    require(!_registered[user]);\n\n    _registered[user]=true;\n    _users.push(user);\n    _passwords.push(password);\n  }\n\n  function loginUser(address user,uint password) public view returns(bool){\n    require(_registered[user]);\n    uint i=0;\n\n    for(i=0;i<_users.length;i++){\n      if(_users[i]==user && _passwords[i]==password){\n        return true;\n      }\n    }\n    return false;\n  }\n\n  function viewUsers() public view returns(address[] memory,uint[] memory){\n    return (_users,_passwords);\n  }\n\n}\n",
  "sourcePath": "/Users/ms/Downloads/Android-Document-Sharing-System-Using-BlockChain/contracts/register.sol",
  "compiler": {
    "name": "solc",
    "version": "0.8.17+commit.8df45f5f.Emscripten.clang"
  },
  "schemaVersion": "3.4.16",
  "updatedAt": "2024-04-04T07:43:12.412Z",
  "networkType": "ethereum",
  "devdoc": {
    "kind": "dev",
    "methods": {},
    "version": 1
  },
  "userdoc": {
    "kind": "user",
    "methods": {},
    "version": 1
  }
}